{
  "contractName": "PropertyRegistry",
  "abi": [
    {
      "constant": true,
      "inputs": [
        {
          "name": "",
          "type": "uint256"
        }
      ],
      "name": "stayData",
      "outputs": [
        {
          "name": "price",
          "type": "uint256"
        },
        {
          "name": "stays",
          "type": "uint256"
        },
        {
          "name": "checkIn",
          "type": "uint256"
        },
        {
          "name": "checkOut",
          "type": "uint256"
        },
        {
          "name": "approved",
          "type": "address"
        },
        {
          "name": "occupant",
          "type": "address"
        },
        {
          "name": "requested",
          "type": "address"
        }
      ],
      "payable": false,
      "stateMutability": "view",
      "type": "function"
    },
    {
      "inputs": [
        {
          "name": "_property",
          "type": "address"
        },
        {
          "name": "_propertyToken",
          "type": "address"
        }
      ],
      "payable": false,
      "stateMutability": "nonpayable",
      "type": "constructor"
    },
    {
      "anonymous": false,
      "inputs": [
        {
          "indexed": true,
          "name": "_tokenId",
          "type": "uint256"
        }
      ],
      "name": "CheckIn",
      "type": "event"
    },
    {
      "anonymous": false,
      "inputs": [
        {
          "indexed": true,
          "name": "_tokenId",
          "type": "uint256"
        }
      ],
      "name": "CheckOut",
      "type": "event"
    },
    {
      "anonymous": false,
      "inputs": [
        {
          "indexed": true,
          "name": "_tokenId",
          "type": "uint256"
        }
      ],
      "name": "Approved",
      "type": "event"
    },
    {
      "anonymous": false,
      "inputs": [
        {
          "indexed": true,
          "name": "_tokenId",
          "type": "uint256"
        }
      ],
      "name": "Registered",
      "type": "event"
    },
    {
      "anonymous": false,
      "inputs": [
        {
          "indexed": true,
          "name": "_tokenId",
          "type": "uint256"
        }
      ],
      "name": "Requested",
      "type": "event"
    },
    {
      "constant": false,
      "inputs": [
        {
          "name": "_tokenId",
          "type": "uint256"
        },
        {
          "name": "_price",
          "type": "uint256"
        }
      ],
      "name": "registerProperty",
      "outputs": [],
      "payable": false,
      "stateMutability": "nonpayable",
      "type": "function"
    },
    {
      "constant": false,
      "inputs": [
        {
          "name": "_tokenId",
          "type": "uint256"
        },
        {
          "name": "_checkIn",
          "type": "uint256"
        },
        {
          "name": "_checkOut",
          "type": "uint256"
        }
      ],
      "name": "request",
      "outputs": [],
      "payable": false,
      "stateMutability": "nonpayable",
      "type": "function"
    },
    {
      "constant": false,
      "inputs": [
        {
          "name": "_tokenId",
          "type": "uint256"
        }
      ],
      "name": "approveRequest",
      "outputs": [],
      "payable": false,
      "stateMutability": "nonpayable",
      "type": "function"
    },
    {
      "constant": false,
      "inputs": [
        {
          "name": "_tokenId",
          "type": "uint256"
        }
      ],
      "name": "checkIn",
      "outputs": [],
      "payable": false,
      "stateMutability": "nonpayable",
      "type": "function"
    },
    {
      "constant": false,
      "inputs": [
        {
          "name": "_tokenId",
          "type": "uint256"
        }
      ],
      "name": "checkOut",
      "outputs": [],
      "payable": false,
      "stateMutability": "nonpayable",
      "type": "function"
    }
  ],
  "bytecode": "0x608060405234801561001057600080fd5b50604051604080610d2f8339810180604052810190808051906020019092919080519060200190929190505050816000806101000a81548173ffffffffffffffffffffffffffffffffffffffff021916908373ffffffffffffffffffffffffffffffffffffffff16021790555080600160006101000a81548173ffffffffffffffffffffffffffffffffffffffff021916908373ffffffffffffffffffffffffffffffffffffffff1602179055505050610c60806100cf6000396000f300608060405260043610610078576000357c0100000000000000000000000000000000000000000000000000000000900463ffffffff1680631bd2eeee1461007d5780637415733b146100aa578063c2e10ef814610199578063d7d1bbdb146101d0578063e65befd1146101fd578063e95a644f1461023e575b600080fd5b34801561008957600080fd5b506100a86004803603810190808035906020019092919050505061026b565b005b3480156100b657600080fd5b506100d5600480360381019080803590602001909291905050506102c4565b604051808881526020018781526020018681526020018581526020018473ffffffffffffffffffffffffffffffffffffffff1673ffffffffffffffffffffffffffffffffffffffff1681526020018373ffffffffffffffffffffffffffffffffffffffff1673ffffffffffffffffffffffffffffffffffffffff1681526020018273ffffffffffffffffffffffffffffffffffffffff1673ffffffffffffffffffffffffffffffffffffffff16815260200197505050505050505060405180910390f35b3480156101a557600080fd5b506101ce6004803603810190808035906020019092919080359060200190929190505050610366565b005b3480156101dc57600080fd5b506101fb60048036038101908080359060200190929190505050610695565b005b34801561020957600080fd5b5061023c6004803603810190808035906020019092919080359060200190929190803590602001909291905050506108bf565b005b34801561024a57600080fd5b50610269600480360381019080803590602001909291905050506109ed565b005b60006002600083815260200190815260200160002060060160006101000a81548173ffffffffffffffffffffffffffffffffffffffff021916908373ffffffffffffffffffffffffffffffffffffffff16021790555050565b60026020528060005260406000206000915090508060000154908060010154908060020154908060030154908060040160009054906101000a900473ffffffffffffffffffffffffffffffffffffffff16908060050160009054906101000a900473ffffffffffffffffffffffffffffffffffffffff16908060060160009054906101000a900473ffffffffffffffffffffffffffffffffffffffff16905087565b813373ffffffffffffffffffffffffffffffffffffffff166000809054906101000a900473ffffffffffffffffffffffffffffffffffffffff1673ffffffffffffffffffffffffffffffffffffffff16636352211e836040518263ffffffff167c010000000000000000000000000000000000000000000000000000000002815260040180828152602001915050602060405180830381600087803b15801561040e57600080fd5b505af1158015610422573d6000803e3d6000fd5b505050506040513d602081101561043857600080fd5b810190808051906020019092919050505073ffffffffffffffffffffffffffffffffffffffff161415156104d4576040517f08c379a00000000000000000000000000000000000000000000000000000000081526004018080602001828103825260058152602001807f4572726f7200000000000000000000000000000000000000000000000000000081525060200191505060405180910390fd5b60e060405190810160405280838152602001600081526020016000815260200160008152602001600073ffffffffffffffffffffffffffffffffffffffff168152602001600073ffffffffffffffffffffffffffffffffffffffff168152602001600073ffffffffffffffffffffffffffffffffffffffff16815250600260008581526020019081526020016000206000820151816000015560208201518160010155604082015181600201556060820151816003015560808201518160040160006101000a81548173ffffffffffffffffffffffffffffffffffffffff021916908373ffffffffffffffffffffffffffffffffffffffff16021790555060a08201518160050160006101000a81548173ffffffffffffffffffffffffffffffffffffffff021916908373ffffffffffffffffffffffffffffffffffffffff16021790555060c08201518160060160006101000a81548173ffffffffffffffffffffffffffffffffffffffff021916908373ffffffffffffffffffffffffffffffffffffffff160217905550905050827f1fcb8fd4a09d0facf37b6e1cd47a0cce5aa0b069a1d3d5bd9c223220fa1f5a1c60405160405180910390a2505050565b803373ffffffffffffffffffffffffffffffffffffffff166000809054906101000a900473ffffffffffffffffffffffffffffffffffffffff1673ffffffffffffffffffffffffffffffffffffffff16636352211e836040518263ffffffff167c010000000000000000000000000000000000000000000000000000000002815260040180828152602001915050602060405180830381600087803b15801561073d57600080fd5b505af1158015610751573d6000803e3d6000fd5b505050506040513d602081101561076757600080fd5b810190808051906020019092919050505073ffffffffffffffffffffffffffffffffffffffff16141515610803576040517f08c379a00000000000000000000000000000000000000000000000000000000081526004018080602001828103825260058152602001807f4572726f7200000000000000000000000000000000000000000000000000000081525060200191505060405180910390fd5b6002600083815260200190815260200160002060060160009054906101000a900473ffffffffffffffffffffffffffffffffffffffff166002600084815260200190815260200160002060040160006101000a81548173ffffffffffffffffffffffffffffffffffffffff021916908373ffffffffffffffffffffffffffffffffffffffff160217905550817f3ad93af63cb7967b23e4fb500b7d7d28b07516325dcf341f88bebf959d82c1cb60405160405180910390a25050565b600073ffffffffffffffffffffffffffffffffffffffff166002600085815260200190815260200160002060060160009054906101000a900473ffffffffffffffffffffffffffffffffffffffff1673ffffffffffffffffffffffffffffffffffffffff1614151561093057600080fd5b336002600085815260200190815260200160002060060160006101000a81548173ffffffffffffffffffffffffffffffffffffffff021916908373ffffffffffffffffffffffffffffffffffffffff160217905550816002600085815260200190815260200160002060020181905550806002600085815260200190815260200160002060030181905550827f54593fbf3d0e13af724316e44a7387ee756ab753993496c7009658e83217002c60405160405180910390a2505050565b3373ffffffffffffffffffffffffffffffffffffffff166002600083815260200190815260200160002060040160009054906101000a900473ffffffffffffffffffffffffffffffffffffffff1673ffffffffffffffffffffffffffffffffffffffff16141515610aec576040517f08c379a000000000000000000000000000000000000000000000000000000000815260040180806020018281038252602d8152602001807f54686520706572736f6e20747279696e6720746f20636865636b20696e20697381526020017f206e6f7420617070726f7665640000000000000000000000000000000000000081525060400191505060405180910390fd5b600260008281526020019081526020016000206002015442111515610b79576040517f08c379a00000000000000000000000000000000000000000000000000000000081526004018080602001828103825260168152602001807f57726f6e672074696d6520746f20636865636b20696e0000000000000000000081525060200191505060405180910390fd5b6002600082815260200190815260200160002060040160009054906101000a900473ffffffffffffffffffffffffffffffffffffffff166002600083815260200190815260200160002060050160006101000a81548173ffffffffffffffffffffffffffffffffffffffff021916908373ffffffffffffffffffffffffffffffffffffffff160217905550807fdf06c27528e294967ba5e32e69b9c5fe102a58c699c44740c2c4c6afc719253560405160405180910390a2505600a165627a7a7230582064e8b6ec95833a6898932f0bdae77fa77b632827c99bd1abe2787c5b1dee9c0b0029",
  "source": "pragma solidity ^0.4.24;\n\n// Open zeppelin templates - ERC721 Basic\nimport \"openzeppelin-solidity/contracts/token/ERC721/ERC721Basic.sol\";\n\n// Open zeppelin templates - ERC20 Token\nimport 'openzeppelin-solidity/contracts/token/ERC20/ERC20.sol';\n\ncontract PropertyRegistry {\n\n    ERC721Basic property;\n    ERC20 propertyToken;\n    struct Data {\n        uint256 price;\n        uint256 stays;\n        uint256 checkIn;\n        uint256 checkOut;\n        address approved;\n        address occupant;\n        address requested;\n    }\n\n    mapping(uint256 => Data) public stayData;\n\n    event CheckIn(uint256 indexed _tokenId);\n    event CheckOut(uint256 indexed _tokenId);\n    event Approved(uint256 indexed _tokenId);\n    event Registered(uint256 indexed _tokenId);\n    event Requested(uint256 indexed _tokenId);\n\n    constructor(address _property, address _propertyToken) public {\n        property = ERC721Basic(_property);\n        propertyToken = ERC20(_propertyToken);\n    }  \n\n    modifier onlyOwner(uint256 _tokenId) {\n        require(property.ownerOf(_tokenId) == msg.sender, \"Error\");\n        _;\n    }\n\n    // --- FUNCTIONS ---\n\n    // Function to register a property\n    function registerProperty(uint256 _tokenId, uint256 _price) external onlyOwner(_tokenId) {\n        stayData[_tokenId] = Data(_price, 0, 0, 0, address(0), address(0), address(0));\n        emit Registered(_tokenId);\n    }\n\n    // Function to request dates for check in and checkout\n    function request(uint256 _tokenId, uint256 _checkIn, uint256 _checkOut) external {\n        require(stayData[_tokenId].requested == address(0)); //no one requested\n        stayData[_tokenId].requested = msg.sender;\n        stayData[_tokenId].checkIn = _checkIn;\n        stayData[_tokenId].checkOut = _checkOut;\n        emit Requested(_tokenId);\n    }\n\n    // Function to approve requests\n    function approveRequest(uint256 _tokenId) external onlyOwner(_tokenId) {\n        stayData[_tokenId].approved = stayData[_tokenId].requested;\n        emit Approved(_tokenId);\n    }\n\n\n    // Function to check in to property\n    function checkIn(uint256 _tokenId) external {\n        require(stayData[_tokenId].approved == msg.sender, \"The person trying to check in is not approved\");\n        require(now > stayData[_tokenId].checkIn, \"Wrong time to check in\");\n        stayData[_tokenId].occupant = stayData[_tokenId].approved;\n        emit CheckIn(_tokenId);\n    }\n\n    // Function to checkout of property\n    function checkOut(uint256 _tokenId) external {\n        // require(stayData[_tokenId].occupant == msg.sender, \"The occupant does not match the sender\");\n        // require((now + 1) < stayData[_tokenId].checkOut, \"Cannot checkout yet\");\n        // require(propertyToken.transfer(property.ownerOf(_tokenId), stayData[_tokenId].price));\n        // stayData[_tokenId].stays++;\n        stayData[_tokenId].requested = address(0);\n        // emit CheckOut(_tokenId);\n    }\n\n}",
  "sourcePath": "/Users/AlexLee/Documents/Coding/blockchainlhl/cryptobnb/contracts/PropertyRegistry.sol",
  "compiler": {
    "name": "solc",
    "version": "0.4.24+commit.e67f0147.Emscripten.clang"
  },
  "schemaVersion": "2.0.1",
  "updatedAt": "2018-10-19T03:56:41.583Z"
}